{
  "address": "0xbdAfdBdEAf77139bCE475b230B9f1133D8093553",
  "abi": [
    {
      "inputs": [
        {
          "internalType": "address",
          "name": "dataFeedAddress",
          "type": "address"
        }
      ],
      "stateMutability": "nonpayable",
      "type": "constructor"
    },
    {
      "inputs": [
        {
          "internalType": "address",
          "name": "",
          "type": "address"
        }
      ],
      "name": "addressToAmountFunded",
      "outputs": [
        {
          "internalType": "uint256",
          "name": "",
          "type": "uint256"
        }
      ],
      "stateMutability": "view",
      "type": "function"
    },
    {
      "inputs": [],
      "name": "dataFeed",
      "outputs": [
        {
          "internalType": "contract AggregatorV3Interface",
          "name": "",
          "type": "address"
        }
      ],
      "stateMutability": "view",
      "type": "function"
    },
    {
      "inputs": [],
      "name": "fund",
      "outputs": [],
      "stateMutability": "payable",
      "type": "function"
    },
    {
      "inputs": [
        {
          "internalType": "uint256",
          "name": "",
          "type": "uint256"
        }
      ],
      "name": "funders",
      "outputs": [
        {
          "internalType": "address",
          "name": "",
          "type": "address"
        }
      ],
      "stateMutability": "view",
      "type": "function"
    },
    {
      "inputs": [],
      "name": "minimumUsd",
      "outputs": [
        {
          "internalType": "uint256",
          "name": "",
          "type": "uint256"
        }
      ],
      "stateMutability": "view",
      "type": "function"
    },
    {
      "inputs": [],
      "name": "owner",
      "outputs": [
        {
          "internalType": "address",
          "name": "",
          "type": "address"
        }
      ],
      "stateMutability": "view",
      "type": "function"
    },
    {
      "inputs": [],
      "name": "withdraw",
      "outputs": [],
      "stateMutability": "nonpayable",
      "type": "function"
    }
  ],
  "transactionHash": "0xe0e6f56254cdf01c57445e7a7ac94a8e88abef40d3847af12ca898de2f50d9c6",
  "args": [
    "0x694AA1769357215DE4FAC081bf1f309aDC325306"
  ],
  "numDeployments": 1,
  "solcInputHash": "6a9014643bb6963482ac34ba4e76f8fd",
  "bytecode": "0x60806040526802b5e3af16b188000060005534801561001d57600080fd5b50604051610eb1380380610eb1833981810160405281019061003f919061012a565b80600460006101000a81548173ffffffffffffffffffffffffffffffffffffffff021916908373ffffffffffffffffffffffffffffffffffffffff16021790555033600360006101000a81548173ffffffffffffffffffffffffffffffffffffffff021916908373ffffffffffffffffffffffffffffffffffffffff16021790555050610157565b600080fd5b600073ffffffffffffffffffffffffffffffffffffffff82169050919050565b60006100f7826100cc565b9050919050565b610107816100ec565b811461011257600080fd5b50565b600081519050610124816100fe565b92915050565b6000602082840312156101405761013f6100c7565b5b600061014e84828501610115565b91505092915050565b610d4b806101666000396000f3fe6080604052600436106100705760003560e01c80638da5cb5b1161004e5780638da5cb5b146100f45780639e42ff901461011f578063b60d42881461014a578063dc0d3dff1461015457610070565b8063098de820146100755780633ccfd60b146100a05780633e47d6f3146100b7575b600080fd5b34801561008157600080fd5b5061008a610191565b604051610097919061070b565b60405180910390f35b3480156100ac57600080fd5b506100b5610197565b005b3480156100c357600080fd5b506100de60048036038101906100d99190610789565b6103dd565b6040516100eb919061070b565b60405180910390f35b34801561010057600080fd5b506101096103f5565b60405161011691906107c5565b60405180910390f35b34801561012b57600080fd5b5061013461041b565b604051610141919061083f565b60405180910390f35b610152610441565b005b34801561016057600080fd5b5061017b60048036038101906101769190610886565b61057b565b60405161018891906107c5565b60405180910390f35b60005481565b600360009054906101000a900473ffffffffffffffffffffffffffffffffffffffff1673ffffffffffffffffffffffffffffffffffffffff163373ffffffffffffffffffffffffffffffffffffffff1614610227576040517f08c379a000000000000000000000000000000000000000000000000000000000815260040161021e90610936565b60405180910390fd5b60005b6001805490508110156102cd5760006001828154811061024d5761024c610956565b5b9060005260206000200160009054906101000a900473ffffffffffffffffffffffffffffffffffffffff1690506000600260008373ffffffffffffffffffffffffffffffffffffffff1673ffffffffffffffffffffffffffffffffffffffff1681526020019081526020016000208190555050808060010191505061022a565b50600067ffffffffffffffff8111156102e9576102e8610985565b5b6040519080825280602002602001820160405280156103175781602001602082028036833780820191505090505b506001908051906020019061032d92919061064b565b5060003373ffffffffffffffffffffffffffffffffffffffff1647604051610354906109e5565b60006040518083038185875af1925050503d8060008114610391576040519150601f19603f3d011682016040523d82523d6000602084013e610396565b606091505b50509050806103da576040517f08c379a00000000000000000000000000000000000000000000000000000000081526004016103d190610a46565b60405180910390fd5b50565b60026020528060005260406000206000915090505481565b600360009054906101000a900473ffffffffffffffffffffffffffffffffffffffff1681565b600460009054906101000a900473ffffffffffffffffffffffffffffffffffffffff1681565b600061046e600460009054906101000a900473ffffffffffffffffffffffffffffffffffffffff166105ba565b60005461047b9190610ac4565b90508034116104bf576040517f08c379a00000000000000000000000000000000000000000000000000000000081526004016104b690610b41565b60405180910390fd5b6001339080600181540180825580915050600190039060005260206000200160009091909190916101000a81548173ffffffffffffffffffffffffffffffffffffffff021916908373ffffffffffffffffffffffffffffffffffffffff16021790555034600260003373ffffffffffffffffffffffffffffffffffffffff1673ffffffffffffffffffffffffffffffffffffffff16815260200190815260200160002060008282546105719190610b61565b9250508190555050565b6001818154811061058b57600080fd5b906000526020600020016000915054906101000a900473ffffffffffffffffffffffffffffffffffffffff1681565b6000808273ffffffffffffffffffffffffffffffffffffffff1663feaf968c6040518163ffffffff1660e01b815260040160a060405180830381865afa158015610608573d6000803e3d6000fd5b505050506040513d601f19601f8201168201806040525081019061062c9190610c22565b5050509150506402540be400816106439190610c9d565b915050919050565b8280548282559060005260206000209081019282156106c4579160200282015b828111156106c35782518260006101000a81548173ffffffffffffffffffffffffffffffffffffffff021916908373ffffffffffffffffffffffffffffffffffffffff1602179055509160200191906001019061066b565b5b5090506106d191906106d5565b5090565b5b808211156106ee5760008160009055506001016106d6565b5090565b6000819050919050565b610705816106f2565b82525050565b600060208201905061072060008301846106fc565b92915050565b600080fd5b600073ffffffffffffffffffffffffffffffffffffffff82169050919050565b60006107568261072b565b9050919050565b6107668161074b565b811461077157600080fd5b50565b6000813590506107838161075d565b92915050565b60006020828403121561079f5761079e610726565b5b60006107ad84828501610774565b91505092915050565b6107bf8161074b565b82525050565b60006020820190506107da60008301846107b6565b92915050565b6000819050919050565b60006108056108006107fb8461072b565b6107e0565b61072b565b9050919050565b6000610817826107ea565b9050919050565b60006108298261080c565b9050919050565b6108398161081e565b82525050565b60006020820190506108546000830184610830565b92915050565b610863816106f2565b811461086e57600080fd5b50565b6000813590506108808161085a565b92915050565b60006020828403121561089c5761089b610726565b5b60006108aa84828501610871565b91505092915050565b600082825260208201905092915050565b7f4f6e6c7920746865206f776e65722063616e2063616c6c20746869732066756e60008201527f6374696f6e000000000000000000000000000000000000000000000000000000602082015250565b60006109206025836108b3565b915061092b826108c4565b604082019050919050565b6000602082019050818103600083015261094f81610913565b9050919050565b7f4e487b7100000000000000000000000000000000000000000000000000000000600052603260045260246000fd5b7f4e487b7100000000000000000000000000000000000000000000000000000000600052604160045260246000fd5b600081905092915050565b50565b60006109cf6000836109b4565b91506109da826109bf565b600082019050919050565b60006109f0826109c2565b9150819050919050565b7f43616c6c206661696c6564000000000000000000000000000000000000000000600082015250565b6000610a30600b836108b3565b9150610a3b826109fa565b602082019050919050565b60006020820190508181036000830152610a5f81610a23565b9050919050565b7f4e487b7100000000000000000000000000000000000000000000000000000000600052601260045260246000fd5b7f4e487b7100000000000000000000000000000000000000000000000000000000600052601160045260246000fd5b6000610acf826106f2565b9150610ada836106f2565b925082610aea57610ae9610a66565b5b828204905092915050565b7f446964206e6f742073656e7420656e6f75676821000000000000000000000000600082015250565b6000610b2b6014836108b3565b9150610b3682610af5565b602082019050919050565b60006020820190508181036000830152610b5a81610b1e565b9050919050565b6000610b6c826106f2565b9150610b77836106f2565b9250828201905080821115610b8f57610b8e610a95565b5b92915050565b600069ffffffffffffffffffff82169050919050565b610bb481610b95565b8114610bbf57600080fd5b50565b600081519050610bd181610bab565b92915050565b6000819050919050565b610bea81610bd7565b8114610bf557600080fd5b50565b600081519050610c0781610be1565b92915050565b600081519050610c1c8161085a565b92915050565b600080600080600060a08688031215610c3e57610c3d610726565b5b6000610c4c88828901610bc2565b9550506020610c5d88828901610bf8565b9450506040610c6e88828901610c0d565b9350506060610c7f88828901610c0d565b9250506080610c9088828901610bc2565b9150509295509295909350565b6000610ca882610bd7565b9150610cb383610bd7565b9250828202610cc181610bd7565b91507f80000000000000000000000000000000000000000000000000000000000000008414600084121615610cf957610cf8610a95565b5b8282058414831517610d0e57610d0d610a95565b5b509291505056fea26469706673582212203add60f431419d9e674cd01eb09f53f98a7604115ce4baf5d07afde24e97125d64736f6c63430008180033",
  "devdoc": {
    "kind": "dev",
    "methods": {},
    "version": 1
  },
  "userdoc": {
    "kind": "user",
    "methods": {},
    "version": 1
  },
  "storageLayout": {
    "storage": [
      {
        "astId": 56,
        "contract": "contracts/FundMe.sol:FundMe",
        "label": "minimumUsd",
        "offset": 0,
        "slot": "0",
        "type": "t_uint256"
      },
      {
        "astId": 59,
        "contract": "contracts/FundMe.sol:FundMe",
        "label": "funders",
        "offset": 0,
        "slot": "1",
        "type": "t_array(t_address)dyn_storage"
      },
      {
        "astId": 63,
        "contract": "contracts/FundMe.sol:FundMe",
        "label": "addressToAmountFunded",
        "offset": 0,
        "slot": "2",
        "type": "t_mapping(t_address,t_uint256)"
      },
      {
        "astId": 65,
        "contract": "contracts/FundMe.sol:FundMe",
        "label": "owner",
        "offset": 0,
        "slot": "3",
        "type": "t_address"
      },
      {
        "astId": 68,
        "contract": "contracts/FundMe.sol:FundMe",
        "label": "dataFeed",
        "offset": 0,
        "slot": "4",
        "type": "t_contract(AggregatorV3Interface)45"
      }
    ],
    "types": {
      "t_address": {
        "encoding": "inplace",
        "label": "address",
        "numberOfBytes": "20"
      },
      "t_array(t_address)dyn_storage": {
        "base": "t_address",
        "encoding": "dynamic_array",
        "label": "address[]",
        "numberOfBytes": "32"
      },
      "t_contract(AggregatorV3Interface)45": {
        "encoding": "inplace",
        "label": "contract AggregatorV3Interface",
        "numberOfBytes": "20"
      },
      "t_mapping(t_address,t_uint256)": {
        "encoding": "mapping",
        "key": "t_address",
        "label": "mapping(address => uint256)",
        "numberOfBytes": "32",
        "value": "t_uint256"
      },
      "t_uint256": {
        "encoding": "inplace",
        "label": "uint256",
        "numberOfBytes": "32"
      }
    }
  }
}